:020000040000FA
:10000000A0F6FF1F9D010000A9010000AB01000048
:1000100000000000000000000000000000000000E0
:10002000000000000000000000000000AD01000022
:100030000000000000000000AF010000B10100005E
:10004000B3010000B3010000B3010000B3010000E0
:10005000B3010000B3010000B3010000B3010000D0
:10006000B3010000B3010000B3010000B3010000C0
:10007000B3010000B3010000B3010000B3010000B0
:10008000B3010000B3010000B3010000B3010000A0
:10009000B3010000B3010000B3010000B301000090
:1000A0000D070000B3010000B3010000B301000020
:1000B000B3010000B3010000B3010000B301000070
:1000C00000F002F800F03EF80CA030C80838241800
:1000D0002D18A246671EAB4654465D46AC4201D180
:1000E00000F030F87E460F3E0FCCB6460126334274
:1000F00000D0FB1AA246AB4633431847500C000011
:10010000700C0000103A02D378C878C1FAD85207B0
:1001100001D330C830C101D504680C6070470000BD
:100120000023002400250026103A01D378C1FBD813
:10013000520700D330C100D50B6070471FB51FBDFB
:1001400010B510BD00F03BF91146FFF7F7FF00F0C6
:100150005BFD00F05DF903B4FFF7F2FF03BC00F0B4
:1001600063F9000070B505460C46164602E00FCC58
:100170000FC5103E102EFAD2082E02D303CC03C5B1
:10018000083E042E07D301CC01C5361F03E02178B9
:100190002970641C6D1C761EF9D270BD72B60948B8
:1001A000804762B608480047FEE7FEE7FEE7FEE745
:1001B000FEE706480047000005480649044A064B8A
:1001C00070470000D5050000C1000000B301000029
:1001D000A0F5FF1FA0F6FF1FA0F5FF1FF8B5042A2A
:1001E0002CD3830712D00B78491C0370401C521E7D
:1001F00083070BD00B78491C0370401C521E8307E9
:1002000004D00B78491C0370401C521E8B079B0FB7
:1002100005D0C91ADF002023DE1B08C90AE0FFF75A
:10022000A1FFF8BD1D4608C9FD401C46B4402C4343
:1002300010C0121F042AF5D2F308C91A521EF0D4B6
:100240000B78491C0370401C521EEAD40B78491CE1
:100250000370401C012AE4D409780170F8BD002223
:1002600003098B422CD3030A8B4211D300239C46F3
:100270004EE003460B433CD4002243088B4231D36B
:1002800003098B421CD3030A8B4201D394463FE0FF
:10029000C3098B4201D3CB01C01A524183098B425F
:1002A00001D38B01C01A524143098B4201D34B0148
:1002B000C01A524103098B4201D30B01C01A5241AB
:1002C000C3088B4201D3CB00C01A524183088B4232
:1002D00001D38B00C01A524143088B4201D34B001B
:1002E000C01A5241411A00D201465241104670478D
:1002F0005DE0CA0F00D04942031000D34042534092
:1003000000229C4603098B422DD3030A8B4212D351
:10031000FC22890112BA030A8B420CD38901921183
:100320008B4208D3890192118B4204D389013AD0C0
:10033000921100E08909C3098B4201D3CB01C01A95
:10034000524183098B4201D38B01C01A52414309A8
:100350008B4201D34B01C01A524103098B4201D396
:100360000B01C01A5241C3088B4201D3CB00C01A03
:10037000524183088B4201D38B00C01A5241D9D21B
:1003800043088B4201D34B00C01A5241411A00D29C
:100390000146634652415B10104601D34042002B98
:1003A00000D54942704763465B1000D3404201B517
:1003B0000020C046C04602BD704770477047754672
:1003C00000F02EF8AE46050069465346C008C0004E
:1003D000854618B020B5FFF7EFFE60BC002749083E
:1003E000B6460026C0C5C0C5C0C5C0C5C0C5C0C5CD
:1003F000C0C5C0C5403D49008D46704770470000EC
:10040000FFFFFFFFFFFFFFFFFFFFFFFFFEFFFFFFFD
:1004100010B50446C046C0462046FFF79CFE10BDFE
:100420000048704740F5FF1F01491820ABBEFEE7AA
:100430002600020010B5034698004C0020431043EC
:1004400010BD000070B55C480078C021084000284D
:100450007ED15948407940210840002865D156484E
:1004600000780421084000282CD1544C5248407890
:1004700030210840002817D04F4800783821084024
:10048000302804D0382805D103256D020BE005255E
:100490002D0208E04848007838210840C108202093
:1004A000884085B200BF07E0434800783821084003
:1004B000C1080120884085B229462046FFF7CFFEBB
:1004C000044601E00124E4033B48C078E0210840F1
:1004D000C106C90E002926D14011030000F00CFA14
:1004E0000805090D1115191D20230520C0014443DD
:1004F0001AE005200002444316E00F20C0014443E7
:1005000012E00520400244430EE0B720800044433F
:100510000AE0B720C000444306E02948444303E012
:100520002848444300E000BF3BE023480079C00670
:10053000C00E451C29462148FFF791FE04461E487F
:100540004079C006C00E054618352046684300E0D5
:1005500001E0044625E018480078C0210840402802
:1005600016D115484078C007C00F002802D10124D9
:10057000E40316E01048007A0E21084041080120EB
:10058000884085B229461048FFF769FE044608E016
:1005900009480078C0210840802801D1074C00E0BC
:1005A00070BD0A484068000F411C2046FFF757FE07
:1005B0000749086000BFF3E70040064000127A00D8
:1005C00095080000710B000000093D0040800440C8
:1005D00058F0FF1F00204249086042480078C007D9
:1005E000C00F00280AD04048807808210840002821
:1005F00004D03D48807808433B4988702A203B4915
:1006000008703B483649C03948603A4800680321C1
:1006100089048843401837490860374840680121F9
:10062000090488434018344948600846406803215B
:10063000090688430121090640182F4948600846E9
:10064000806B491508432C4988632C4880682C49E5
:1006500008402A4988600846C06829490840274957
:10066000C86000202749087224204870802026494D
:1006700008709A202349087000BF2248807902211F
:1006800008400028F9D000BF1E488079102108409A
:100690000028F9D11B48C078C006C00E1949C8709F
:1006A0000120087100204871084640794021084324
:1006B0001449487100BF1348807940210840002840
:1006C000F9D0104800788006800E0E49087000BFEF
:1006D0000C4880790C2108400C28F9D170470000A3
:1006E0000081044000F0074000D0074000E00740D0
:1006F000000001100070044000800440409004405D
:10070000FFF8FFFE0040064000500640F0B585B0FF
:1007100038480478E007C00F002814D03548007D21
:1007200002210843334908754021002000F01EFAD9
:10073000002030490876FF200872087008739F2057
:10074000087105B0F0BD02202040002806D02949DC
:10075000087A08720221274A117000BF0420204045
:10076000002802D0042023490870082020400028D7
:100770002FD02048057C2F1108202840C008039066
:1007800004202840800802903846029A0399FFF717
:1007900051FEC00018494018019001980078800669
:1007A000000F0090B80015490E58306A002806D096
:1007B0000198F0613246336A3846009998470398A9
:1007C000002802D1019800F0A5F808200949087016
:1007D00000BF10202040002802D0102005490870DA
:1007E00080202040002802D080200249087000BFED
:1007F000A7E700008020074000F4FF1F24F0FF1F40
:10080000002007E00021C2002D4B9950C200D218F1
:100810005160401C0828F5D32A4949680522120472
:100820001143284A51601146496B01229204114339
:10083000244A51632449097B80221143224A1173BF
:1008400000BF2149097B802211400029F9D11C49B0
:100850000904090E1C4A803A117719490902090E48
:10086000194A603A11741649090E1175FF21164A8A
:10087000803A11701172154A11741349097B402294
:100880001143114A117301210F4A803A1175002159
:100890000D4A11700C4980390979012211430A4A25
:1008A000803A11711821002905DBCB06DB0E0122ED
:1008B0009A40074B1A6000BF1021034A117270471B
:1008C00000F4FF1F00800440002107400020074083
:1008D00000E100E070B504460D46002C08DD022C56
:1008E00006DAA00003490D504021204600F03EF9F1
:1008F00070BD000024F0FF1F30B47446641E2578DC
:10090000641CAB4204D3635D5B00E31830BC184742
:100910001D46F8E7402302681A409109002901D0DA
:10092000402200E00022024B1A43026070470000A0
:1009300088004000F7B50D461446E7690026012DF2
:100940006FD0052D6ED0092D6DD00D2D6CD10822E4
:1009500050487968FFF742FC002201210098FFF718
:1009600069FDC0004C4900220A500122114600983E
:10097000FFF760FDC000484900220A500120607462
:100980004448008805210902401A09D0FF388138FF
:10099000002807D0012806D04910401A45D100E0B0
:1009A00045E044E000BF3B4840880321090208407D
:1009B000884210D13749887806280BDA0C21414348
:1009C000364A8918496861610C21414389180989AF
:1009D0002183002624E02F484088FF2101318842EE
:1009E00005D12F48606112202083002618E0294895
:1009F000408801214902884205D12A4860612220AD
:100A0000208300260CE023484088112149028842B7
:100A100005D12548606113202083002600E00126CF
:100A200005E033E033E01FE032E0012600BF00BF05
:100A3000002E03D00F201D49087010E0208B1549AF
:100A4000C988884202DD1348C0882083002000F056
:100A500051F8208B002802DD002000F04BF8012027
:100A600012494039087513E0208B002802DD002070
:100A700000F040F80748008805210902884204D1A7
:100A80000448807809494039087601E000E000BF59
:100A900000BFFEBD2CF0FF1F00F4FF1F040D00007F
:100AA000CD0C0000DF0C0000BA0C0000C020074095
:100AB00070B50446D069012902D0092916D115E084
:100AC00005682D022B0E402B0FD145682D78002D87
:100AD0000BD145686D78012D03D15D03044EB560DF
:100AE00003E00125ED04024E756000BF00BF70BD3C
:100AF00040F00FF8F8B506460025B00019490C582B
:100B0000227C01213046FFF795FCC00016494718AA
:100B1000258B402D00D940256069786028048030FD
:100B2000617C002901D0402100E000210843082118
:100B300008433860606940196061208B401B208346
:100B4000207C002802D10120207401E000202074C4
:100B5000607C002802D10120607401E000206074F4
:100B6000F8BD000024F0FF1F00F4FF1F70B505461C
:100B70000E46A80021490C58002020746074002201
:100B800011462846FFF756FCC1001D4A3004883044
:100B90005050002211462846FFF74CFCC00018496F
:100BA000401821684160012200212846FFF742FCDD
:100BB000C100134A3004C830505001220021284699
:100BC000FFF738FCC0000E49401861684160002200
:100BD00001212846FFF72EFCC000094900220A50D7
:100BE000012211462846FFF725FCC00004490022D7
:100BF0000A500D210348AA00815470BD24F0FF1F44
:100C000000F4FF1FC020074000BF00BFFFF71AFC21
:100C10000E4800680E49884205D1FFF7F1FD0D49E5
:100C20000120FFF757FE0C48806B01218902084321
:100C30000949886388150949C86009484069012144
:100C4000C90408430649486100BFFEE758F0FF1F8A
:100C5000006CDC0234F0FF1F0080044040A0044020
:100C600040F00FF8040309040C035400450053003E
:100C70005400450014034B004C00320035005A006C
:100C800020004C00450044001203300030003000CA
:100C900030003000300030000000100348004900F0
:100CA000440020004C00450044001003440045006F
:100CB0004600410055004C00540005080900A10100
:100CC000750895402501150009009102C012010127
:100CD0000100000040CDAB34120000010203010905
:100CE00002220001010580FA09040000010300004E
:100CF000040921100100012213000705010340002F
:100D00000100000000030000640C0000040000006B
:100D100001030904680C00000C0000000203090430
:100D2000740C00001400000003030904880C000088
:100D300012000000040309049A0C000010000000D7
:100D400005030904AA0C0000100000006C0D00004F
:100D500000F0FF1F5C00000004010000C80D00004F
:100D60005CF0FF1F440600002001000000F2FF1F9E
:100D700040F2FF1F00000000000000000000000023
:100D80000000000000000000000000003509000025
:100D900000F0FF1F00000000000000000000000045
:100DA00040F4FF1F80F4FF1FC0F4FF1F00F5FF1F7A
:100DB0000000000000000000000000000000000033
:080DC000B10A0000006CDC0226
:04000005000000C136
:00000001FF
